:060000000A128A110C280F
:10000800FE00030EF1000A08F2000A128A11802885
:100018000A128A110F2883010A128A11512883169D
:1000280003130F088F3960388F000F1403308316BD
:100038000317880089010330831603138500831290
:1000480003138501831603138601831203138601A4
:100058008316031387018312031387011F083F398F
:1000680040389F00831603131F129F12C330831258
:1000780003139F05831603139F13831203131F147F
:100088000D30F300F30B46288B170B178316031359
:100098000C17831203130C1308000A128A11132079
:1000A8000A128A11831203139F185B285C285628AA
:1000B8001F0CF400740C0F39003A031D64286528DE
:1000C8006A281F08C33904389F0075281F0CF400DC
:1000D800740C0F39013A031D722873287528C33030
:1000E8009F050D30F400F40B7728831203139F1437
:1000F80056280A128A110C28831203130C1F85280C
:1001080086289E281F0CF000700C0F39003A031D3A
:100118008E288F2892281E0887009D281F0CF00023
:10012800700C0F39013A031D9A289B289D281E0838
:1001380086000C1372088A00710E8300FE0E7E0E74
:020148000900AC
:08400000FF3FFF3FFF3FFF3FC0
:04400E00D420FF3F7C
:00000001FF
