:060000000A128A110C280F
:10000800FE00030EF1000A08F2000A128A114B28BA
:100018000A128A110F2883010A128A11642883168A
:1000280003130F088F3960388F000F1401308316BF
:100038000317880089010130831603138500831292
:1000480003138501831603138701831203138701A2
:100058001F083F3940389F00831603131F129F1251
:10006800C330831203139F05831603139F13831250
:1000780003131F140D30F300F30B40288B170B17D5
:10008800831603130C17831203130C13080083122F
:1000980003130C1F502851285D281F0CF000700C0A
:1000A8000F39003A031D59285A285C281E08870072
:1000B8000C1372088A00710E8300FE0E7E0E090072
:1000C8000A128A1113200A128A11831203139F1825
:1000D8006E286F2869289F1469280A128A110C282B
:08400000FF3FFF3FFF3FFF3FC0
:04400E00D420FF3F7C
:00000001FF
