:060000000A128A110C280F
:10000800FE00030EF6000A08F7000A128A11672A92
:100018000A128A110F28F80183120313AC01AD01EB
:10002800AE01AF01B001B101B201B301B401830166
:100038000A128A11AA2A83120313AC01AD01AE0178
:10004800AF01B001B1012A08803AFF0080307F0279
:10005800031D302864302902031C332834285C2807
:10006800643083120313A0000030A1002A08A30003
:100078002908A2000A128A11A9200A128A118312D9
:1000880003132108AD002008AC006430A000003044
:10009800A1002A08A3002908A2000A128A116F21C8
:1000A8000A128A11831203132108AA002008A90042
:1000B800831203132A08803AFF0080307F02031D51
:1000C80067280A302902031C6A286B2893280A30FB
:1000D80083120313A0000030A1002A08A3002908F6
:1000E800A2000A128A11A9200A128A118312031384
:1000F8002108AF002008AE000A30A0000030A1009F
:100108002A08A3002908A2000A128A116F210A12DC
:100118008A11831203132108B1002008B00083124A
:1001280003132A08803AFF0080307F02031D9E28AF
:100138000A3029020318A128A228A8288312031329
:100148002A08B1002908B000080083120313A60189
:10015800A11FAF28B028B728A009A109A00A031930
:10016800A10AA601A60AA31FBA28BB28C428A20967
:10017800A309A20A0319A30A0130A4002408A606A9
:10018800A701A801200821040319CB28CC2803299A
:10019800A501A50ADA2801300310A00DA10DFF3E24
:1001A800031DD0280130A4002408A507A11FDD28BD
:1001B800DE28CF2801300310A70DA80DFF3E031D30
:1001C800DF2821082302031DEB2820082202031C34
:1001D800EE28EF28F6282008A2022108031CA30312
:1001E800A302271401300310A10CA00CFF3E031D2D
:1001F800F7280130A502031D02290329DE28260855
:100208000319072908290D29A709A809A70A031905
:10021800A80A2808A1002708A000080047293F309D
:10022800A2002208B4006E290630A2002208B400F9
:100238006E295B30A2002208B4006E294F30A2005C
:100248002208B4006E296630A2002208B4006E2984
:100258006D30A2002208B4006E297D30A200220869
:10026800B4006E290730A2002208B4006E297F303E
:10027800A2002208B4006E296F30A2002208B40040
:100288006E29B4016E29831203132108003A031959
:100298004E2945292008003A03191329013A031960
:1002A8001829033A03191D29013A03192229073A83
:1002B80003192729013A03192C29033A031931296B
:1002C800013A031936290F3A03193B29013A031950
:1002D80040294529080083120313A601A31F752985
:1002E80076297D29A209A309A20A0319A30AA6014E
:1002F800A60AA11F802981298629A009A109A00A87
:100308000319A10A2008210403198B298C29BB2968
:10031800A501A50A9A2901300310A00DA10DFF3EE1
:10032800031D90290130A4002408A507A11F9D29B9
:100338009E298F2921082302031DA42920082202AF
:10034800031CA729A829AE292008A2022108031CFA
:10035800A303A30201300310A10CA00CFF3E031D50
:10036800AF290130A502031DBA29BB299E292608F9
:100378000319BF29C029C529A209A309A20A03197B
:10038800A30A2308A1002208A0000800831603136B
:100398000F088F3960388F000F1403308316031746
:1003A8008800890103308316031385008312031321
:1003B80085018316031386018312031386018316AE
:1003C800031387018312031387018316031388011C
:1003D80083120313880183160313811281110730D6
:1003E8008104EC308312031381001F083F39403821
:1003F8009F00831603131F129F12C3308312031327
:100408009F05831603139F13831203131F140C30C5
:1004180083120313A000A00B0F2A00008B170B17E1
:100428008B160B11831603130C17831203130C136B
:10043800080083120313A50088018717532A31087F
:10044800A1003008A0000A128A1112210A128A118A
:1004580083120313340887000814662A2F08A100A2
:100468002E08A0000A128A1112210A128A11831278
:100478000313340887008814662A2D08A1002C0865
:10048800A0000A128A1112210A128A118312031378
:100498003408870087170815662A8801662A250800
:1004A800A300A4012408003A03195B2A512A23084F
:1004B800003A0319232A013A0319322A033A031985
:1004C800412A512A0800831203130C1F6C2A6D2A33
:1004D800902A1F0CF500750C0F39003A031D752A78
:1004E800762A792A1E0886008E2A1F0CF500750CBC
:1004F8000F39013A031D812A822A8E2A1E080A1200
:100508008A11EB220A128A11710883120313B300AD
:100518007008B2000C13A32A0B1D932A942AA32A4D
:10052800EC3081000B110130F5007508F807033035
:100538007802031CA02AA12AA32AF801A32A770873
:100548008A00760E8300FE0E7E0E09000A128A11BA
:10055800CA210A128A11831203139F18B42AB52AD2
:10056800D82A1F0CAB002B0C0F39003A031DBD2AEB
:10057800BE2AC32A1F08C33904389F00CE2A1F0C7D
:10058800AB002B0C0F39013A031DCB2ACC2ACE2AFB
:10059800C3309F050C3083120313AB00AB0BD22A78
:1005A8000000831203139F143308AA003208A9001D
:1005B8000A128A111F200A128A1178080A128A114F
:1005C8001D220A128A11AF2A0A128A110C28F40075
:1005D8007408F200F3010310720DF000730DF100BE
:0205E800080009
:08400000FF3FFF3FFF3FFF3FC0
:04400E00D420FF3F7C
:00000001FF
